:1000030054696D653A00504D00414D002020200099
:100013004C65633A2D2D20204E78743A2D2D3A2DC0
:100023002D2020200043313A2D2D2D2D2D2D202044
:1000330043323A2D2D2D2D2D2D0043333A2D2D2DC9
:100043002D2D2D2020202020202020202020004C7A
:1000530065633A004C65633A2D2D0020204E787479
:100063003A004E6F6E652020202020200043313A55
:100073004D756768656573202043323A41627A7231
:10008300200043333A4661697A616E2020202020A4
:10009300202020202020002020202020202020207D
:1000A30020202020202020202020200020204C65FC
:1000B30063747572652000205374617274656421E2
:1000C30020002020546561636865727320506C655D
:1000D300617365202020002020476F20746F204328
:1000E3006C6173736573212020202000212121215D
:1000F30020454D455247454E435920212121212179
:10010300002020204576616375617465204E6F770A
:10011300212020202000233D41747420202A3D53B8
:1001230063686564202000303D54696D65202A3D75
:10013300426B73706320200049443A00205072657B
:1001430073200050726573656E7420546F64617917
:100153003A20200053747564656E74733A0020204E
:1001630020202020005072696E636970616C204FFB
:10017300666669636500204E6F204C656374757213
:1001830065204E6F77200020434C41535345532045
:100193004F56455220202000204861766520476F46
:1001A3006F6420446179212000202020202020201A
:1001B30020202020202020202000212120454D45E3
:1001C3005247454E435920212120004177616974EC
:1001D300696E67204C656374757265004C65637462
:1001E300757265204E6F3A200050524553454E5468
:1001F300202020202020202020004D495353494E09
:10020300472021212120202020200020202A2A20CD
:10021300434C4153534553204F564552202A2A00FD
:1002230020202048617665206120476F6F64204459
:1002330061792120004944204E6F7420466F756E0A
:1002430064212020200054727920416761696E2067
:1002530020202020202000415454454E44204D4F5F
:10026300444520202020200049443A2020202020FB
:100273002020202020202020002020536368656454
:10028300756C652053617665642120202000202051
:1002930053746F72656420696E2052544320524137
:1002A3004D20002020205343484544554C45204DC4
:1002B3004F44452020202000506572696F6420312F
:1002C3002D372C20383D456E64546D2000202A3D87
:1002D300426B73702020233D536176652F45786907
:1002E30074005363686F6F6C20456E642054696DAE
:1002F300653A2020202000506572696F643A20001F
:10030300456E642054696D652048484D4D3A202060
:10031300202020200053746172742054696D65207D
:1003230048484D4D3A2020202000506572696F6483
:100333002053617665642120202020202020004E58
:1003430065787420706572696F64206F722023452D
:100353007869740054696D652055706461746564CF
:100363002120202000312D373A4C65637475726566
:1003730020383A456E6454696D0049443A202A3D59
:10038300426B737020233D4578200053455420541D
:10039300494D452848484D4D292020002A3D426BB0
:1003A30073702020233D45786974202000436F75C6
:1003B3006E742052657365742120202020005072D2
:1003C3006573656E743A2030202F3520202000207D
:1003D300202053534D532053595354454D2020202F
:1003E30020202000202020496E697469616C697A9D
:1003F300696E672E2E2020200020417474656E6480
:10040300616E63652053797320002020205265615B
:1004130064792E2E2E202020202000205072696E19
:10042300636970616C204F66662E20004D756768A6
:1004330065657320004162757A6172202000466110
:10044300697A616E20200030303100303032003064
:100453003033003030340030303500416C69204B8C
:1004630068616E00556D617220536861685A6169F5
:100473006420416C692048617373616E20200042DF
:08048300696C616C202020006F
:101761000122080123000141000140FF0126FFC1C0
:1017710000C104C105C106C103C102C101012400A8
:0D178100012500013D00014200023E000074
:0619BD00D2907F057E00C0
:1019C300E4FDFCC3ED9FEC9E50070DBD00010C80B0
:0119D300F221
:0119D40022F0
:04188E007F0A7E004F
:10189200E4FDFCC3ED9FEC9E5015E4FBFA0BBB008C
:0F18A200010AEB64784A70F50DBD00010C80E47B
:0118B1002214
:0D1A3200D2911219BDC2911219C3C29022A7
:0A1A4B00C2911219BDD2910219C315
:10198B00A20892917F027E001219C3D2907F05129A
:09199B0019C3C2907F020219C3B6
:1019A400D2917F027E001219C3D2907F051219C30F
:0819B400A2919208C290A20862
:0119BC002208
:0518D400121A327FD062
:0218D900AB075B
:1018DB00E4FAEB30E703D38001C3920812198BEBC8
:0A18EB0025E0FB0ABA08EB0219A47D
:10193600E4FBFA1219A4E433FFEB25E04FFB0ABAE5
:0C19460008F1A207B3920812198BAF033E
:011952002272
:0F1A2300EFC4540F75F00AA4FEEF540F2EFF22EC
:1019FE00EF75F00A84C454F0FEEF75F00A84E5F03A
:031A0E004EFF2266
:1019EA008F0DA9051218D4AF0D1218D9AF0112180C
:0419FA00D9021A4BA9
:0218B200A90784
:1018B4001218D4AF011218D9121A4B121A327FD14E
:0F18C4001218D9C207121936AB07121A4BAF030D
:0118D30022F2
:1015B1008F0C8D0DA9031218D4E4FF1218D9AF01B5
:1015C1001219FE1218D9AF0D1219FE1218D9AF0C4B
:1015D1001219FE1218D97F011218D97F011218D9D8
:1015E1007F061219FE1218D97F1A1219FE1218D984
:0815F100E4FF1218D9021A4BA5
:10124B001218D4E4FF1218D9121A4B121A327FD18A
:10125B001218D9D2071219368F08D2071219368FE6
:10126B0009C207121936AB07121A4BE508547FFF58
:10127B00121A23AD07E509547FFF121A23AC07EBB3
:03128B0030E62C1E
:10128E00541FFF121A238F0AE50AB40C0EEB30E539
:10129E00047F0C80027F00A907801AEB30E507E57A
:0A12AE000A240CFF8002AF0AA90712
:1012B8008009EB543FFF121A23A907EDD3943B5042
:1012C80010EC943B500BE9941750068D418C238900
:0112D80022F3
:0112D90022F2
:021953008B0BFC
:10195500EF25E02409F50CFF1219EAE50C04FFADAB
:0B1965000B1219EA7DAA7F080219EAA4
:101366007F081218B2EF64AA705DF508E50825E05B
:101376002409F509FF1218B2E50825E0242DF8A680
:1013860007E50904FF1218B2E50825E0242EF8A6A1
:1013960007E50825E0242DF8E6D39417500DE50857
:1013A60025E0242EF8E6D3943B4012E50825E024F8
:1013B6002DF8E4F6E50825E0242EF8E4F60508E520
:1013C60008C3940840A622E4F508E50825E0242D84
:1013D600F8E4F6E50825E0242EF8E4F60508E50825
:0313E600B408E761
:0113E90022E1
:0B11B6007E001218927D30E4FBAF08B1
:1011C100AA07EA6401702AED30E403D38001C392D7
:1011D100A0ED30E503D38001C392A1ED30E603D346
:1011E1008001C392A2ED30E703D38001C392A380B3
:1011F1000BED54F0FFE580540F4FF580BA0107EB7A
:1012010024FF9280800EEBBA020624FF92828004B2
:1012110024FF92A47F017E001219C3BA010AD28170
:101221000F1219C3C281801BBA020DD2837F027EC5
:10123100001219C3C283800BD2A57F027E0012194E
:0A124100C3C2A57F027E000219C39C
:101970008F168D17A9031211C1E517C454F0FDAFDE
:0B198000161211C17F027E00021892B7
:051A5D00E4FB0219701A
:031A55002431FD3C
:051A58007B0102197082
:081700007A00799A7BFF7F015A
:101708008F128B138A148915AB13AA14A9151215F5
:101718000B60150515E5157002051414F912150B63
:09172800FDAF12121A5880E022F4
:101814008F118C128D13851382851283E4936019C2
:101824000513E513AE127002051214F5828E83E4DB
:0A18340093FDAF11121A5880DD2257
:0619D500E4FB7D017F022E
:0F19DB00ED70047E8080027EC0EE2BFD021A5D4F
:06178F00E4FB7D027F0176
:10179500ED7007EB2480F5128018BD0107EB24C01E
:1017A500F512800EEBBD02062494F512800424D4B4
:0717B500F512AD12021A5DEE
:101916008F128D13E51375F00A842430FD121A58C0
:10192600E51375F00A84E5F02430FDAF12021A586B
:061A1100F525F53D7F0202
:0C1A17007D01121A5D7F027E0002189211
:1015F9008F087F141211B67F051211B67F011211DF
:10160900B67F017E001218927D201211BD7F017EE6
:10161900001218927D28AF08121A5D7D0CAF0812CE
:101629001A5D7D06AF08121A5D7D01AF08121A5DB9
:071639007F027E00021892FF
:100F7800D2B3D2B2D2B1D2B0D2B6D2B5D2B4C2B054
:100F88001219BF20B40D7F0A12189220B405D2B0EE
:100F98007F312220B50B12188E20B505D2B07F32D2
:100FA8002220B60B12188E20B605D2B07F3322D27B
:100FB800B0C2B11219BF20B40D7F0A12189220B422
:100FC80005D2B17F342220B50B12188E20B505D278
:100FD800B17F352220B60B12188E20B605D2B17F0C
:100FE8003622D2B1C2B21219BF20B40D7F0A12182C
:100FF8009220B405D2B27F372220B50B12188E206A
:10100800B505D2B27F382220B60B12188E20B6054D
:10101800D2B27F3922D2B2C2B31219BF20B40D7F27
:101028000A12189220B405D2B37F2A2220B50B12D7
:10103800188E20B505D2B37F302220B60B12188E39
:0D10480020B605D2B37F2322D2B37F002251
:0C1A3F00120F78EF70FA7F14FE0218926C
:061563008B0B8A0C890DC0
:10156900E4FF750E01E4FEAB0BAA0CA90D8E827582
:101579008300121524FDEF25E025E0244AF582E4D5
:101589003404F583E5822EF582E43583F583E4930B
:101599006D6005E4F50E80040EBE03CBE50E600117
:0715A900220FBF05BD7FFF0B
:0115B0002218
:10183E00E4121551EF70047E0C8018EFC3940C5017
:10184E0005AE07E4800DBF0C047E0C8004EF24F47B
:08185E00FE7401121551AF06E2
:01186600225F
:0613EA008B128A13891426
:1013F000E4FFEF25E0242DF8E6FE7009EF25E02458
:101400002EF8E66036EED395225017EF25E0242D16
:10141000F8E665227025EF25E0242EF8E6D3952323
:101420004019EF25E0242DF8E6AB12AA13A91412F7
:101430001551EF25E0242EF8E6800E0FBF07B3AB61
:1014400012AA13A914E4121551AB15AA16A9171262
:02145000155134
:011452002277
:10066B00E4F50DF50EF511FB7A00790BAF2212189C
:10067B003E8F0CE4FD7F011217957A007903121758
:10068B0004AD0C7F011219167D3A7F01121A58AD79
:10069B00237F011219167D3A7F01121A58AD417F43
:1006AB00011219167D207F01121A58E50B7BFF6092
:1006BB00067A00790980047A00790C7F01121708F9
:1006CB007BFF7A00790F7F01121708E4FFEF25E01B
:1006DB00242DF8E67009EF25E0242EF8E660057569
:1006EB00110180040FBF08E5E5116003300134E40C
:1006FB00FB7D017F011217957BFF7A0079137F0138
:10070B0012170812178F7BFF7A0079287F011217B7
:10071B0008E4FB7D037F011217957BFF7A00793D7F
:10072B0002080E75150075160075170E7B007A0002
:10073B00790D1213EA7B007A007910AF0D12183E77
:10074B008F0F7D017F01121795E540F47BFF60123F
:10075B007A0079527F01121708E5407F01121A5572
:10076B0080097A0079577F011217087BFF7A00798D
:10077B005E7F01121708E50D700CE50E70087BFF0C
:10078B007A0079658037AD0F7F011219167D3A7F9C
:10079B0001121A58AD0E7F011219167D207F01121E
:1007AB001A58E5107BFF60067A00790980047A00FD
:1007BB00790C7F011217087BFF7A00790F7F0112EA
:1007CB001708E540F4601F12178F7BFF7A007970D2
:1007DB007F01121708E4FB7D037F011217957BFF46
:1007EB007A007985801D12178F7BFF7A0079287F1D
:1007FB0001121708E4FB7D037F011217957BFF7A2B
:08080B0000793D7F011217087E
:0108130022C2
:101453008F097F01121A17E4FBFD7F011217951202
:101463001700E4FB7D017F011217957BFF7A00795A
:10147300AF7F01121708E5092431FD7F01121A58C5
:101483007BFF7A0079BA7F0112170812178F7BFF4F
:101493007A0079C57F01121708E4FB7D037F0112EF
:0D14A30017957BFF7A0079DA7F01021708A8
:101640007F01121A17E4FBFD7F011217957BFF7AC9
:101650000079EF7F01121708E4FB7D017F0112176B
:101660009512170012178F7BFF7A0179047F011200
:101670001708E4FB7D037F011217957BFF7A007941
:06168000EF7F01021708D4
:0A0D5F00750DFF750EFFC202C20100
:100D6900E4F50FF50CE50C25E0242DF8E6700AE50D
:100D79000C25E0242EF8E66005750F018007050CA7
:100D8900E50CB408E0E50F70077540FF7526FF22F2
:100D9900E53B7004E53C602DE522D3953B500DE51C
:100DA90022653B7020E523C3953C40197540FF75CA
:100DB90026FFD202D201C204C205C206C290C2965F
:100DC900C297020E89E4F50CE50C25E0242DF8E61E
:100DD900FF700AE50C25E0242EF8E66026850C0E46
:100DE900E522D39F501AE50C25E0242DF8E6B5221B
:100DF90012E50C25E0242EF8E6FFE523C39F400306
:100E0900850C0D050CE50CB407BE850D40850D2636
:050E1900E50DF460444A
:100E1E00E4F50FF50CE50C25E0242DF8E6FF700A3D
:100E2E00E50C25E0242EF8E66023EFD3952250182A
:100E3E00E50C25E0242DF8E6B52212E50C25E0247C
:100E4E002EF8E6D395234005750F018007050CE5B6
:040E5E000CB407C108
:100E6200C204C205C206E50DF46003D38001C39239
:100E720090E50DF46003D38001C39296E50DF46012
:0A0E820003D38001C39297120C2BDA
:010E8C002243
:1018F500E4FBFD7F021219DB7BFF7A0179197F0278
:101905001217081219D57BFF7A01792A7F0202176F
:0119150008C9
:02111F008F0B34
:101121007B007A00790CAF2212183E8F0D7F0212DC
:101131001A17E4FBFD7F021219DB7BFF7A01793B71
:101141007F02121708E50B25E025E0244AF582E429
:101151003404AD82FC7F021218147D207F02121A22
:1011610058E50B75F009A4245EF582E43404AD82E0
:10117100FC7F021218141219D5AD0D7F0212191637
:101181007D3A7F02121A58AD237F021219167D2073
:101191007F02121A58E50C7BFF60067A00790980FC
:1011A100047A00790C7F021217087BFF7A01793FDC
:0511B1007F0202170897
:10168600E4FBFD7F021219DB7BFF7A0179467F02BC
:101696001217081219D57BFF7A0179577F021217A4
:1016A60008E5242430FD7F02121A587D2F7F02128E
:1016B6001A587D357F02121A587BFF7A0179617FAD
:0416C60002021708FD
:10186700E4FBFD7F031219DB7BFF7A0179687F03B5
:10187700121708E4FB7D017F031219DB7BFF7A0156
:0718870079797F03021708C5
:1017BC007F03121A17E4FBFD7F031219DB7BFF7A00
:1017CC0001798A7F03121708E4FB7D017F0312194C
:0C17DC00DB7BFF7A01799B7F030217087A
:1017E8007F03121A17E4FBFD7F031219DB7BFF7AD4
:1017F8000179AC7F03121708E4FB7D017F031219FE
:0C180800DB7BFF7A0179BD7F030217082B
:070C2B00E4F542F53EF53F40
:100C32003001030217BCE540F47028E526F4702366
:100C4200FBFD7F031219DB7BFF7A0179687F0312B8
:100C52001708E4FB7D017F031219DB7BFF7A017920
:100C6200CE8045E5421424FD504324046003020D66
:100C72005E7F03121A17E4FBFD7F031219DB7BFF71
:100C82007A0179DF7F03121708E540F46004E5403A
:100C92008002E5267F03121A55E4FB7D017F0312D1
:100CA20019DB7BFF7A0179AC7F03021708854210BA
:100CB200E510B40106A2049207800FE510B4020603
:100CC200A20592078004A20692077F03121A17E474
:100CD200FBFD7F031219DB7D437F03121A58E510D7
:100CE2002430FD7F03121A587D3A7F03121A58E509
:100CF20010B401067C047D2F800FE510B402067C3F
:100D0200047D3880047C047D417F03121814E4FBC7
:100D12007D017F031219DB3007227BFF7A0179EC18
:100D22007F03121708E510B40102C290E510B40265
:100D320002C296E51064037023C297227BFF7A01F8
:100D420079FD7F03121708E510B40102D290E51075
:0C0D5200B40202D296E510B40302D2975E
:010D5E002272
:1016CA00200332053FE53F7002053EE5427005FE04
:1016DA007F0280047E007F04C3E53F9FE53E9E4073
:1016EA0014E4F53EF53F0542E542D394034003E492
:0516FA00F542120C3264
:0116FF0022C8
:10081400E4FFFE3001030209A6F508E50825E024FB
:100824002DF8E6700AE50825E0242EF8E660030FAB
:10083400AE080508E508B407E2EF70030209A6E56F
:100844003B7007E53C7003020924E522653B600325
:10085400020924E523653C600302092430000302F5
:1008640009A6D2007540FFD202D20120033E7F01C7
:10087400121A17E4FBFD7F01121795121700E4FB0F
:100884007D017F011217957BFF7A02790E7F011299
:10089400170812178F121700E4FB7D037F0112174C
:1008A400957BFF7A0279237F01121708D2A77F581C
:1008B4007E1B121892C2A77FE87E031218927F0152
:1008C400121A17E4FBFD7F01121795121700E4FBBF
:1008D4007D017F011217957BFF7A02790E7F011249
:1008E400170812178F121700E4FB7D037F011217FC
:1008F400957BFF7A0279237F011217087F107E27E8
:1009040012189220030312066B121686E4F542F5C0
:100914003EF53F200303120C32C290C296C29722C6
:10092400E4F508E50825E0242DF8E6FF700AE5085B
:1009340025E0242EF8E6605FE5226F705AE508256D
:10094400E0242EF8E66523704E200056D200850878
:1009540040850826C202C204C205C206D290D296BD
:10096400D297200305AF40121453E540B40103129B
:100974001686E4F542F53EF53F200303120C32D20D
:10098400A77F587E1B121892C2A77FE87E03121815
:100994009220030E02066B0508E508C39407408302
:0209A400C2008F
:0109A600222E
:101731007F327E0012189220B72530B7FD7F147ECC
:101741000012189220030AD203D2A71216400217E0
:10175100E8C203C2A7E525700312066B120C2B2207
:1014B000209219E540F460142004117F327E00125E
:1014C0001892209207D204C2903092FD209319E521
:1014D00040F460142005117F327E00121892209390
:1014E00007D205C2963093FD209419E540F46014AC
:1014F0002006117F327E00121892209407D206C275
:0B150000973094FD20B7031217312232
:020E8D008F09CB
:100E8F00E509B42307E4121A110218F5E509B42A8B
:100E9F001AE53DD394005003020F77153DE53D242D
:100EAF00031219D67D5F7F02021A58E509C39430E9
:100EBF005003020F77E509D394394003020F77AF40
:100ECF003D053D74272FF8A609E53D24021219D6DA
:100EDF00AD097F02121A58E53D64036003020F77D4
:100EEF00F52AFB7A0079271215638F0AE50AF46059
:100EFF0025D2A60524E524D394054003752405AD1A
:100F0F00247F201219EAAF0A12111F7FB87E0B122D
:100F1F001892C2A6802D7F02121A17E4FBFD7F02E2
:100F2F001219DB7BFF7A0279387F02121708121928
:100F3F00D57BFF7A0279497F021217087FD07E078F
:100F4F00121892E4121A13E4FBFD7F021219DB7BD5
:100F5F00FF7A02795A7F021217081219D57BFF7A8E
:080F6F0002796B7F02121708E2
:010F77002257
:02048B008F09D7
:10048D00E5096423704CF525F53D7F01121A17E43B
:10049D00FBFD7F01121795121700E4FB7D017F0113
:1004AD001217957BFF7A02797C7F011217081217BC
:1004BD008F7BFF7A0279917F01121708E4FB7D0390
:1004CD007F011217951217007FD07E071218920226
:1004DD00066BE509642A706AE53DD394005003026A
:1004ED00066A153DE53D704C7F01121A17E4FBFDC0
:1004FD007F011217957BFF7A0279A67F01121708EB
:10050D00E4FB7D017F011217957BFF7A0279BB7F9A
:10051D000112170812178F7BFF7A0279D07F011213
:10052D001708E4FB7D037F011217957BFF7A007995
:10053D009A020665E53D240A1217907D5F7F010240
:10054D001A58AF3D053D74272FF8A609E53D640106
:10055D0060030205DF7F01121A17E4FBFD7F011214
:10056D0017957BFF7A0279A67F01121708E509B46A
:10057D003816E4FB7D017F011217957BFF7A027916
:10058D00E57F01121708801BE4FB7D017F01121727
:10059D00957BFF7A0279FA7F01121708AD097F0169
:1005AD00121A5812178FE5277BFFB438067A037994
:1005BD000380047A0379187F01121708E4FB7D0389
:1005CD007F011217957BFF7A0279D07F01121708F0
:1005DD008015E53DD39405500EE53D240912179085
:1005ED00AD097F01121A58E53D64057070E527B419
:1005FD003805750A078006E52724CFF50AE5282476
:10060D00D075F00AA4FFE52924D02FFDE52A24D0CA
:10061D0075F00AA4FFE52B24D02FFBE50AD3940730
:10062D005017E50A25E0242DF8A605E50A25E02456
:10063D002EF8A603AF0A121953E4F53DFB7D017F99
:10064D00011217957BFF7A03792D7F01121708127E
:0D065D00178F7BFF7A0379427F0112170887
:01066A00226D
:021055008F0901
:10105700E509B4230AE53D7006121A1102111BE5D2
:1010670009B42A18E53DD39400500302111E153D1B
:10107700AB3D1219D77D5F7F02021A58E509C39469
:1010870030500302111EE509D39439400302111EA3
:10109700AF3D053D74272FF8A609E53D141219D673
:1010A700AD097F02121A58E53D6404706AE52724EA
:1010B700D075F00AA4FFE52824D02FF50AE52924E6
:1010C700D075F00AA4FFE52A24D02FF50BE4FBAD79
:1010D7000BAF0A1215B1850A22850B23E4F54112DD
:1010E7000D5FE4F53DF5257F02121A17E4FBFD7F3E
:1010F700021219DB7BFF7A0379577F021217081256
:1011070019D57BFF7A0179AC7F021217087FD07E51
:07111700071218921218F5EF
:01111E0022AE
:100AEF00120F788F08E5087003020C2A121A3FE5DF
:100AFF00256003020C0CE508642A7053752501F577
:100B0F003D7F01121A17E4FBFD7F011217957BFF42
:100B1F007A0279A67F01121708E4FB7D017F01128B
:100B2F0017957BFF7A0379687F0112170812178FC9
:100B3F007BFF7A0279D07F01121708E4FB7D037FD8
:100B4F00011217957BFF7A00799A7F01020BC9E595
:100B5F00086423703B752502121A13E4FBFD7F0214
:100B6F001219DB7BFF7A02795A7F021217081219CA
:100B7F00D57BFF7A03797D7F021217087F887E135A
:100B8F001218921219D57BFF7A02796B7F02802A95
:100B9F00E50864307027752503121A13E4FBFD7FF7
:100BAF00021219DB7BFF7A03798E7F02121708126C
:100BBF0019D57BFF7A03799F7F02021708E5086436
:100BCF0039703AF524FD7F201219EAC2017F021213
:100BDF001A17E4FBFD7F021219DB7BFF7A0379B052
:100BEF007F021217081219D57BFF7A0379C17F0292
:100BFF001217087FD07E071218920218F5E525B458
:100C0F000105AF0812048BE525B40205AF08120EDB
:0B0C1F008DE525B40305AF0812105549
:010C2A0022A7
:1009A700C2A7C290C296C297C2A6D292D293D2943D
:1009B700D2B7D2B4D2B5D2B6D2B0D2B1D2B2D2B304
:1009C7007F011215F97F021215F97F031215F9E459
:1009D700FBFD7F01121795121700E4FB7D017F01D4
:1009E7001217957BFF7A0379D27F01121708121726
:1009F7008F7BFF7A0379E77F01121708E4FB7D03FA
:100A07007F01121795121700E4FBFD7F021219DB15
:100A17007BFF7A0379FC7F021217081219D57BFF37
:100A27007A04790D7F02121708E4FBFD7F03121980
:100A3700DB7BFF7A04791E7F03121708E4FB7D0135
:100A47007F031219DB7BFF7A04790D7F03121708E6
:100A57007FD07E071218921213667F201218B28F6A
:100A670024E524D394054003E4F52412124B120D18
:100A77005F3001028007E540C39401400812066B0E
:100A8700121686800612066B1218F5120C32121215
:100A97004B1208141214B0120AEFE525703E20031A
:100AA7003B200128E53B7004E53C6020E522D39517
:100AB7003B500CE522B53B14E523C3953C400DD2D2
:100AC70001D2027540FFC290C296C29712066BE52B
:100AD70040C3940150033001031216861216CA7FD1
:080AE700F47E0112189280A6B2
:030000000212DA0F
:0C12DA00787FE4F6D8FD758142021321F4
:10150B00BB010689828A83E0225002E722BBFE02DE
:09151B00E32289828A83E4932211
:10152400BB010CE58229F582E5833AF583E022507C
:1015340006E92582F8E622BBFE06E92582F8E222C6
:0D154400E58229F582E5833AF583E49322E0
:10155100BB010689828A83F0225002F722BBFE0179
:02156100F32273
:1012E6000209A7E493A3F8E493A34003F68001F26E
:1012F60008DFF48029E493A3F85407240CC8C33309
:10130600C4540F4420C8834004F456800146F6DFD7
:10131600E4800B0102040810204080901761E47EEF
:10132600019360BCA3FF543F30E509541FFEE493CC
:10133600A360010ECF54C025E060A840B8E493A393
:10134600FAE493A3F8E493A3C8C582C8CAC583CABE
:10135600F0A3C8C582C8CAC583CADFE9DEE780BE76
:01178E00005A
:00000001FF
